{
  "contractName": "PriceRace",
  "abi": [
    {
      "inputs": [],
      "stateMutability": "nonpayable",
      "type": "constructor"
    },
    {
      "anonymous": false,
      "inputs": [
        {
          "indexed": true,
          "internalType": "address",
          "name": "player",
          "type": "address"
        },
        {
          "indexed": false,
          "internalType": "uint256",
          "name": "raceID",
          "type": "uint256"
        },
        {
          "indexed": false,
          "internalType": "uint256",
          "name": "amount",
          "type": "uint256"
        },
        {
          "indexed": false,
          "internalType": "enum PriceRace.Choice",
          "name": "choice",
          "type": "uint8"
        }
      ],
      "name": "Bet",
      "type": "event"
    },
    {
      "inputs": [],
      "name": "getCurrentRaceDesc",
      "outputs": [
        {
          "internalType": "uint256",
          "name": "",
          "type": "uint256"
        },
        {
          "internalType": "uint256",
          "name": "",
          "type": "uint256"
        },
        {
          "internalType": "int256",
          "name": "",
          "type": "int256"
        }
      ],
      "stateMutability": "view",
      "type": "function",
      "constant": true
    },
    {
      "inputs": [],
      "name": "getLatestRound",
      "outputs": [
        {
          "internalType": "uint80",
          "name": "",
          "type": "uint80"
        },
        {
          "internalType": "int256",
          "name": "",
          "type": "int256"
        }
      ],
      "stateMutability": "view",
      "type": "function",
      "constant": true
    },
    {
      "inputs": [
        {
          "internalType": "uint80",
          "name": "round",
          "type": "uint80"
        }
      ],
      "name": "getThePriceByRound",
      "outputs": [
        {
          "internalType": "uint80",
          "name": "",
          "type": "uint80"
        },
        {
          "internalType": "int256",
          "name": "",
          "type": "int256"
        }
      ],
      "stateMutability": "view",
      "type": "function",
      "constant": true
    },
    {
      "inputs": [],
      "name": "betUp",
      "outputs": [],
      "stateMutability": "payable",
      "type": "function",
      "payable": true
    },
    {
      "inputs": [],
      "name": "betDown",
      "outputs": [],
      "stateMutability": "payable",
      "type": "function",
      "payable": true
    },
    {
      "inputs": [],
      "name": "Liquidate",
      "outputs": [],
      "stateMutability": "nonpayable",
      "type": "function"
    }
  ],
  "bytecode": "0x608060405234801561001057600080fd5b5073cee686f89bc0dabad95aeaac980ae1d97a075fad600e60006101000a81548173ffffffffffffffffffffffffffffffffffffffff021916908373ffffffffffffffffffffffffffffffffffffffff160217905550600060048190555061007c61008160201b60201c565b610249565b600160045401600481905550600454600560010181905550603c42016005600201819055506000600560030160006101000a81548160ff021916908360028111156100c857fe5b02179055506000600560060160006101000a81548160ff021916908360038111156100ef57fe5b021790555061010261015a60201b60201c565b600560000160006005600401600084919050558391906101000a81548169ffffffffffffffffffff021916908369ffffffffffffffffffff160217905550505060006005600701819055506000600560080181905550565b6000806000806000806000600e60009054906101000a900473ffffffffffffffffffffffffffffffffffffffff1673ffffffffffffffffffffffffffffffffffffffff1663feaf968c6040518163ffffffff1660e01b815260040160a06040518083038186803b1580156101cd57600080fd5b505afa1580156101e1573d6000803e3d6000fd5b505050506040513d60a08110156101f757600080fd5b8101908080519060200190929190805190602001909291908051906020019092919080519060200190929190805190602001909291905050509450945094509450945084849650965050505050509091565b610fb4806102586000396000f3fe6080604052600436106100555760003560e01c8063464946031461005a578063708fe4df14610071578063746fe94a146100bb5780637782090b146100f4578063ad19f442146100fe578063e33e7fed14610108575b600080fd5b34801561006657600080fd5b5061006f610182565b005b34801561007d57600080fd5b506100866109e4565b604051808369ffffffffffffffffffff1669ffffffffffffffffffff1681526020018281526020019250505060405180910390f35b3480156100c757600080fd5b506100d0610ad3565b60405180848152602001838152602001828152602001935050505060405180910390f35b6100fc610af5565b005b610106610c24565b005b34801561011457600080fd5b5061014d6004803603602081101561012b57600080fd5b81019080803569ffffffffffffffffffff169060200190929190505050610d52565b604051808369ffffffffffffffffffff1669ffffffffffffffffffff1681526020018281526020019250505060405180910390f35b6000806000806000600e60009054906101000a900473ffffffffffffffffffffffffffffffffffffffff1673ffffffffffffffffffffffffffffffffffffffff1663feaf968c6040518163ffffffff1660e01b815260040160a06040518083038186803b1580156101f257600080fd5b505afa158015610206573d6000803e3d6000fd5b505050506040513d60a081101561021c57600080fd5b8101908080519060200190929190805190602001909291908051906020019092919080519060200190929190805190602001909291905050509450945094509450945060056002015442101561027157600080fd5b6000600281111561027e57fe5b600560030160009054906101000a900460ff16600281111561029c57fe5b146102a657600080fd5b6001600560030160006101000a81548160ff021916908360028111156102c857fe5b0217905550600084905080600580018190555080851415610567576003600560060160006101000a81548160ff0219169083600381111561030557fe5b021790555060008090505b6002805490508110156104345760006002828154811061032c57fe5b9060005260206000200160009054906101000a900473ffffffffffffffffffffffffffffffffffffffff16905060008060008373ffffffffffffffffffffffffffffffffffffffff1673ffffffffffffffffffffffffffffffffffffffff1681526020019081526020016000205490508173ffffffffffffffffffffffffffffffffffffffff166108fc829081150290604051600060405180830381858888f193505050501580156103e2573d6000803e3d6000fd5b506000808373ffffffffffffffffffffffffffffffffffffffff1673ffffffffffffffffffffffffffffffffffffffff1681526020019081526020016000206000905550508080600101915050610310565b5060008090505b6003805490508110156105615760006003828154811061045757fe5b9060005260206000200160009054906101000a900473ffffffffffffffffffffffffffffffffffffffff1690506000600160008373ffffffffffffffffffffffffffffffffffffffff1673ffffffffffffffffffffffffffffffffffffffff1681526020019081526020016000205490508173ffffffffffffffffffffffffffffffffffffffff166108fc829081150290604051600060405180830381858888f1935050505015801561050e573d6000803e3d6000fd5b50600160008373ffffffffffffffffffffffffffffffffffffffff1673ffffffffffffffffffffffffffffffffffffffff168152602001908152602001600020600090555050808060010191505061043b565b50610991565b84811315610781576001600560060160006101000a81548160ff0219169083600381111561059157fe5b021790555060008090505b6002805490508110156106da576000600282815481106105b857fe5b9060005260206000200160009054906101000a900473ffffffffffffffffffffffffffffffffffffffff16905060008060008373ffffffffffffffffffffffffffffffffffffffff1673ffffffffffffffffffffffffffffffffffffffff16815260200190815260200160002054905060056007015460056008015482028161063d57fe5b04810190508173ffffffffffffffffffffffffffffffffffffffff166108fc829081150290604051600060405180830381858888f19350505050158015610688573d6000803e3d6000fd5b506000808373ffffffffffffffffffffffffffffffffffffffff1673ffffffffffffffffffffffffffffffffffffffff168152602001908152602001600020600090555050808060010191505061059c565b5060008090505b60038054905081101561077b576000600382815481106106fd57fe5b9060005260206000200160009054906101000a900473ffffffffffffffffffffffffffffffffffffffff169050600160008273ffffffffffffffffffffffffffffffffffffffff1673ffffffffffffffffffffffffffffffffffffffff168152602001908152602001600020600090555080806001019150506106e1565b50610990565b6002600560060160006101000a81548160ff021916908360038111156107a357fe5b021790555060008090505b600280549050811015610847576000600282815481106107ca57fe5b9060005260206000200160009054906101000a900473ffffffffffffffffffffffffffffffffffffffff1690506000808273ffffffffffffffffffffffffffffffffffffffff1673ffffffffffffffffffffffffffffffffffffffff168152602001908152602001600020600090555080806001019150506107ae565b5060008090505b60038054905081101561098e5760006003828154811061086a57fe5b9060005260206000200160009054906101000a900473ffffffffffffffffffffffffffffffffffffffff1690506000600160008373ffffffffffffffffffffffffffffffffffffffff1673ffffffffffffffffffffffffffffffffffffffff1681526020019081526020016000205490506005600801546005600701548202816108f057fe5b04810190508173ffffffffffffffffffffffffffffffffffffffff166108fc829081150290604051600060405180830381858888f1935050505015801561093b573d6000803e3d6000fd5b50600160008373ffffffffffffffffffffffffffffffffffffffff1673ffffffffffffffffffffffffffffffffffffffff168152602001908152602001600020600090555050808060010191505061084e565b505b5b6002600061099f9190610f38565b600360006109ad9190610f38565b6002600560030160006101000a81548160ff021916908360028111156109cf57fe5b02179055506109dc610e65565b505050505050565b6000806000806000806000600e60009054906101000a900473ffffffffffffffffffffffffffffffffffffffff1673ffffffffffffffffffffffffffffffffffffffff1663feaf968c6040518163ffffffff1660e01b815260040160a06040518083038186803b158015610a5757600080fd5b505afa158015610a6b573d6000803e3d6000fd5b505050506040513d60a0811015610a8157600080fd5b8101908080519060200190929190805190602001909291908051906020019092919080519060200190929190805190602001909291905050509450945094509450945084849650965050505050509091565b6000806000600560010154600560020154600560040154925092509250909192565b600034905080600160003373ffffffffffffffffffffffffffffffffffffffff1673ffffffffffffffffffffffffffffffffffffffff168152602001908152602001600020819055506003339080600181540180825580915050600190039060005260206000200160009091909190916101000a81548173ffffffffffffffffffffffffffffffffffffffff021916908373ffffffffffffffffffffffffffffffffffffffff16021790555080600560080154016005600801819055503373ffffffffffffffffffffffffffffffffffffffff167f06b57e1f9cacc057f07b9653d7645b65f33dee66921555028ed3f5c60a6d0df260045483600260405180848152602001838152602001826003811115610c0c57fe5b60ff168152602001935050505060405180910390a250565b6000349050806000803373ffffffffffffffffffffffffffffffffffffffff1673ffffffffffffffffffffffffffffffffffffffff168152602001908152602001600020819055506002339080600181540180825580915050600190039060005260206000200160009091909190916101000a81548173ffffffffffffffffffffffffffffffffffffffff021916908373ffffffffffffffffffffffffffffffffffffffff16021790555080600560070154016005600701819055503373ffffffffffffffffffffffffffffffffffffffff167f06b57e1f9cacc057f07b9653d7645b65f33dee66921555028ed3f5c60a6d0df260045483600160405180848152602001838152602001826003811115610d3a57fe5b60ff168152602001935050505060405180910390a250565b6000806000806000806000600e60009054906101000a900473ffffffffffffffffffffffffffffffffffffffff1673ffffffffffffffffffffffffffffffffffffffff16639a6fc8f5896040518263ffffffff1660e01b8152600401808269ffffffffffffffffffff1669ffffffffffffffffffff16815260200191505060a06040518083038186803b158015610de857600080fd5b505afa158015610dfc573d6000803e3d6000fd5b505050506040513d60a0811015610e1257600080fd5b810190808051906020019092919080519060200190929190805190602001909291908051906020019092919080519060200190929190505050945094509450945094508484965096505050505050915091565b600160045401600481905550600454600560010181905550603c42016005600201819055506000600560030160006101000a81548160ff02191690836002811115610eac57fe5b02179055506000600560060160006101000a81548160ff02191690836003811115610ed357fe5b0217905550610ee06109e4565b600560000160006005600401600084919050558391906101000a81548169ffffffffffffffffffff021916908369ffffffffffffffffffff160217905550505060006005600701819055506000600560080181905550565b5080546000825590600052602060002090810190610f569190610f59565b50565b610f7b91905b80821115610f77576000816000905550600101610f5f565b5090565b9056fea2646970667358221220679f93aff09d76035d33c2aa943af0d53d9899a7be91d84edc9653df8a2b7c4564736f6c63430006070033",
  "immutableReferences": {},
  "source": "// SPDX-License-Identifier: MIT\npragma solidity ^0.6.7;\n\nimport \"@chainlink/contracts/src/v0.6/interfaces/AggregatorV3Interface.sol\";\n\ncontract PriceRace {\n    enum Choice {\n      None,\n      UP,\n      DOWN,\n      EQUAL\n    }\n\n    enum Stage {\n      In_progress,\n      Liquidating,\n      Finish\n    }\n\n\n    struct RoundDesc {\n      uint80   chainlinkRoundID;\n      uint256  raceID;\n      uint256  deadline;\n      Stage  stage;\n      int  lockPrice;\n      int resultPrice;\n      Choice roundResult;\n      uint256 uptotal;\n      uint256 downtotal;\n    }\n    mapping(address => uint256) private ups;\n    mapping(address => uint256) private downs;\n    address payable [] private upplayers;\n    address payable [] private downplayers;\n    uint256  currentRaceID;\n    RoundDesc currentRound;\n    AggregatorV3Interface internal priceFeed;\n\n\n    /**\n     * Network: Harmony testnet\n     * Aggregator: ONE/USD\n     * Address: 0xcEe686F89bc0dABAd95AEAAC980aE1d97A075FAD\n     */\n    constructor() public {\n\n        priceFeed = AggregatorV3Interface(0xcEe686F89bc0dABAd95AEAAC980aE1d97A075FAD);\n        currentRaceID = 0;\n        startRound();\n    }\n\n    function startRound() private {\n      currentRaceID = currentRaceID + 1;\n      currentRound.raceID = currentRaceID;\n      currentRound.deadline = now + 1 minutes;\n      currentRound.stage = Stage.In_progress;\n      currentRound.roundResult =Choice.None;\n      (currentRound.chainlinkRoundID, currentRound.lockPrice) = getLatestRound();\n      currentRound.uptotal = 0;\n      currentRound.downtotal = 0;\n\n    }\n\n    function getCurrentRaceDesc() public view returns(uint256,uint256, int ) {\n      return (currentRound.raceID, currentRound.deadline,currentRound.lockPrice);\n    }\n    function getLatestRound() public view returns(uint80, int) {\n      (\n            uint80 roundID,\n            int price,\n            uint startedAt,\n            uint timeStamp,\n            uint80 answeredInRound\n        ) = priceFeed.latestRoundData();\n        return (roundID, price);\n    }\n    /**\n     *\n     */\n    function getThePriceByRound(uint80 round) public view returns (uint80, int) {\n        (\n            uint80 roundID,\n            int price,\n            uint startedAt,\n            uint timeStamp,\n            uint80 answeredInRound\n        ) = priceFeed.getRoundData(round);\n        return (roundID, price);\n    }\n    event  Bet(address indexed player, uint256 raceID, uint256  amount, Choice choice);\n    function betUp() payable public {\n\n       uint amount = msg.value;\n       ups[msg.sender] = amount;\n       upplayers.push(msg.sender);\n       currentRound.uptotal = currentRound.uptotal + amount;\n       emit  Bet(msg.sender, currentRaceID, amount, Choice.UP);\n    }\n\n    function betDown() payable public {\n\n       uint amount = msg.value;\n       downs[msg.sender] = amount;\n       downplayers.push(msg.sender);\n       currentRound.downtotal = currentRound.downtotal + amount;\n       emit  Bet(msg.sender, currentRaceID, amount, Choice.DOWN);\n    }\n\n    function Liquidate() public {\n      (\n            uint80 roundID,\n            int price,\n            uint startedAt,\n            uint timeStamp,\n            uint80 answeredInRound\n        ) = priceFeed.latestRoundData();\n      require(now >= currentRound.deadline);\n      require(currentRound.stage == Stage.In_progress);\n      currentRound.stage = Stage.Liquidating;\n      int  resultPrice  = price;\n      currentRound.resultPrice = resultPrice;\n      if (price == resultPrice) {\n          // EQUAL\n        currentRound.roundResult = Choice.EQUAL;\n        for (uint256 i = 0; i < upplayers.length;i++){\n           address payable player = upplayers[i];\n           uint256 amount = ups[player];\n           player.transfer(amount);\n           delete ups[player];\n        }\n\n        for (uint256 i = 0; i < downplayers.length;i++){\n           address payable player = downplayers[i];\n           uint256 amount = downs[player];\n           player.transfer(amount);\n           delete downs[player];\n        }\n\n      } else if(resultPrice > price ){\n        // UP\n        currentRound.roundResult = Choice.UP;\n        for (uint256 i = 0; i < upplayers.length;i++){\n           address payable player = upplayers[i];\n           uint256 amount = ups[player];\n           amount = amount + amount*currentRound.downtotal /currentRound.uptotal;\n           player.transfer(amount);\n           delete ups[player];\n        }\n\n        for (uint256 i = 0; i < downplayers.length;i++){\n           address player = downplayers[i];\n           delete downs[player];\n        }\n\n      } else {\n        // DOWN\n        currentRound.roundResult = Choice.DOWN;\n        for (uint256 i = 0; i < upplayers.length; i++){\n           address player = upplayers[i];\n           delete ups[player];\n        }\n\n        for (uint256 i = 0; i < downplayers.length;i++){\n           address payable player = downplayers[i];\n           uint256 amount = downs[player];\n           amount = amount + amount*currentRound.uptotal/currentRound.downtotal;\n           player.transfer(amount);\n           delete downs[player];\n        }\n      }\n      delete upplayers;\n      delete downplayers;\n\n      currentRound.stage = Stage.Finish;\n\n      startRound();\n    }\n\n}\n",
  "sourcePath": "/home/ubuntu/contract/priceRace/contracts/PriceRace.sol",
  "compiler": {
    "name": "solc",
    "version": "0.6.7+commit.b8d736ae.Emscripten.clang"
  },
  "schemaVersion": "3.4.3",
  "updatedAt": "2021-10-11T09:00:00.774Z",
  "networkType": "ethereum",
  "devdoc": {
    "methods": {}
  },
  "userdoc": {
    "methods": {
      "constructor": "Network: Harmony testnet Aggregator: ONE/USD Address: 0xcEe686F89bc0dABAd95AEAAC980aE1d97A075FAD"
    }
  }
}